:020000040800F2
:100000000050002075170008851500088B150008A2
:1000100091150008971500089D15000800000000C4
:10002000000000000000000000000000A315000810
:10003000AF15000800000000BB150008C715000838
:10004000BD170008BD170008BD170008BD17000840
:10005000BD170008BD170008BD170008BD17000830
:10006000BD170008BD170008BD170008D51500080A
:10007000BD170008BD170008BD170008BD17000810
:10008000BD170008BD170008BD170008BD17000800
:10009000BD170008BD170008BD170008BD170008F0
:1000A000BD170008BD170008BD170008BD170008E0
:1000B000BD170008BD170008BD170008BD170008D0
:1000C000BD170008BD170008BD170008BD170008C0
:1000D000BD170008BD170008BD170008BD170008B0
:1000E000BD170008BD170008BD170008000000007C
:1000F0000000000000000000000000000000000000
:0C01000000000000000000005FF808F1A3
:1001100010B5054C237833B9044B13B10448AFF341
:1001200000800123237010BDDC01002000000000CE
:100130005073000808B5034B1BB103490348AFF3E4
:10014000008008BD00000000E0010020507300089E
:10015000034613F8012B002AFBD1181A0138704707
:100160004FF0FF0C1CEAD0521EBF1CEAD15392EA9A
:100170000C0F93EA0C0F6FD01A4480EA010C400276
:1001800018BF5FEA41211ED04FF0006343EA5010D0
:1001900043EA5111A0FB01310CF00040B1F5000F12
:1001A0003EBF490041EAD3715B0040EA010062F1C1
:1001B0007F02FD2A1DD8B3F1004F40EBC25008BFAB
:1001C00020F00100704790F0000F0CF0004C08BFC9
:1001D00049024CEA502040EA51207F3AC2BFD2F196
:1001E000FF0340EAC250704740F400004FF00003A4
:1001F000013A5DDC12F1190FDCBF00F000407047DE
:10020000C2F10002410021FA02F1C2F1200200FA1B
:1002100002FC5FEA310040F1000053EA4C0308BFE2
:1002200020EADC70704792F0000F00F0004C02BF33
:10023000400010F4000F013AF9D040EA0C0093F0AE
:10024000000F01F0004C02BF490011F4000F013B08
:10025000F9D041EA0C018FE70CEAD15392EA0C0F76
:1002600018BF93EA0C0F0AD030F0004C18BF31F0E1
:10027000004CD8D180EA010000F00040704790F0B7
:10028000000F17BF90F0004F084691F0000F91F05B
:10029000004F14D092EA0C0F01D142020FD193EA21
:1002A0000C0F03D14B0218BF084608D180EA0100A9
:1002B00000F0004040F0FE4040F40000704740F085
:1002C000FE4040F44000704781F0004102E000BF72
:1002D00083F0004330B54FEA41044FEA430594EA06
:1002E000050F08BF90EA020F1FBF54EA000C55EA41
:1002F000020C7FEA645C7FEA655C00F0E2804FEA12
:100300005454D4EB5555B8BF6D420CDD2C4480EAF3
:10031000020281EA030382EA000083EA010180EA23
:10032000020281EA0303362D88BF30BD11F0004F71
:100330004FEA01314FF4801C4CEA113102D04042A7
:1003400061EB410113F0004F4FEA03334CEA1333E2
:1003500002D0524263EB430394EA050F00F0A780FA
:10036000A4F10104D5F1200E0DDB02FA0EFC22FAF5
:1003700005F2801841F1000103FA0EF2801843FAE9
:1003800005F359410EE0A5F120050EF1200E012ADA
:1003900003FA0EFC28BF4CF0020C43FA05F3C01818
:1003A00051EBE37101F0004507D54FF0000EDCF191
:1003B000000C7EEB00006EEB0101B1F5801F1BD33A
:1003C000B1F5001F0CD349085FEA30004FEA3C0C3E
:1003D00004F101044FEA445212F5800F80F09A8034
:1003E000BCF1004F08BF5FEA500C50F1000041EB38
:1003F000045141EA050130BD5FEA4C0C404141EB3C
:100400000101013C28BFB1F5801FE9D291F0000F36
:1004100004BF01460020B1FA81F308BF2033A3F1E5
:100420000B03B3F120020CDA0C3208DD02F1140CDC
:10043000C2F10C0201FA0CF021FA02F10CE002F117
:100440001402D8BFC2F1200C01FA02F120FA0CFC10
:10045000DCBF41EA0C019040E41AA2BF01EB045159
:10046000294330BD6FEA04041F3C1CDA0C340EDC57
:1004700004F11404C4F1200220FA04F001FA02F39A
:1004800040EA030021FA04F345EA030130BDC4F158
:100490000C04C4F1200220FA02F001FA04F340EA4D
:1004A0000300294630BD21FA04F0294630BD94F0FE
:1004B000000F83F4801306BF81F480110134013DE5
:1004C0004EE77FEA645C18BF7FEA655C29D094EA56
:1004D000050F08BF90EA020F05D054EA000C04BFD4
:1004E0001946104630BD91EA030F1EBF00210020BF
:1004F00030BD5FEA545C05D14000494128BF41F05E
:10050000004130BD14F580043CBF01F5801130BDC1
:1005100001F0004545F0FE4141F470014FF000004C
:1005200030BD7FEA645C1ABF194610467FEA655CFD
:100530001CBF0B46024650EA013406BF52EA03359F
:1005400091EA030F41F4002130BD00BF90F0000F8D
:1005500004BF0021704730B54FF4806404F13204C9
:100560004FF000054FF0000150E700BF90F0000F82
:1005700004BF0021704730B54FF4806404F13204A9
:1005800010F0004548BF40424FF000013EE700BF79
:1005900042004FEAE2014FEA31014FEA02701FBF09
:1005A00012F07F4393F07F4F81F06051704732F03B
:1005B0007F4208BF704793F07F4F04BF41F4002192
:1005C000704730B54FF4607401F0004521F00041F0
:1005D0001CE700BF50EA010208BF704730B54FF07A
:1005E00000050AE050EA010208BF704730B511F07B
:1005F000004502D5404261EB41014FF4806404F1B3
:1006000032045FEA915C3FF4D8AE4FF003025FEA38
:10061000DC0C18BF03325FEADC0C18BF033202EBBC
:10062000DC02C2F1200300FA03FC20FA02F001FA16
:1006300003FE40EA0E0021FA02F11444BDE600BFB9
:1006400070B54FF0FF0C4CF4E06C1CEA11541DBF68
:100650001CEA135594EA0C0F95EA0C0F00F0DEF833
:100660002C4481EA030621EA4C5123EA4C5350EA18
:10067000013518BF52EA033541F4801143F4801369
:1006800038D0A0FB02CE4FF00005E1FB02E506F0FA
:100690000042E0FB03E54FF00006E1FB03569CF04F
:1006A000000F18BF4EF0010EA4F1FF04B6F5007F55
:1006B00064F5407404D25FEA4E0E6D4146EB0606C7
:1006C00042EAC62141EA55514FEAC52040EA5E5050
:1006D0004FEACE2EB4F1FD0C88BFBCF5E06F1ED8FA
:1006E000BEF1004F08BF5FEA500E50F1000041EB31
:1006F000045170BD06F0004646EA010140EA0200DE
:1007000081EA0301B4EB5C04C2BFD4EB0C0541EAFF
:10071000045170BD41F480114FF0000E013C00F314
:10072000AB8014F1360FDEBF002001F0004170BD38
:10073000C4F10004203C35DA0C341BDC04F1140451
:10074000C4F1200500FA05F320FA04F001FA05F2DD
:1007500040EA020001F0004221F0004110EBD370AA
:1007600021FA04F642EB06015EEA430E08BF20EAD6
:10077000D37070BDC4F10C04C4F1200500FA04F379
:1007800020FA05F001FA04F240EA020001F000410B
:1007900010EBD37041F100015EEA430E08BF20EA7E
:1007A000D37070BDC4F1200500FA05F24EEA020EC6
:1007B00020FA04F301FA05F243EA020321FA04F0F5
:1007C00001F0004121FA04F220EA020000EBD370AC
:1007D0005EEA430E08BF20EAD37070BD94F0000FAC
:1007E0000FD101F00046400041EB010111F4801FE0
:1007F00008BF013CF7D041EA060195F0000F18BF91
:10080000704703F00046520043EB030313F4801FCC
:1008100008BF013DF7D043EA0603704794EA0C0F86
:100820000CEA135518BF95EA0C0F0CD050EA41069C
:1008300018BF52EA4306D1D181EA030101F0004119
:100840004FF0000070BD50EA410606BF1046194641
:1008500052EA430619D094EA0C0F02D150EA01364D
:1008600013D195EA0C0F05D152EA03361CBF10468E
:1008700019460AD181EA030101F0004141F0FE412D
:1008800041F470014FF0000070BD41F0FE4141F4B1
:10089000780170BD70B54FF0FF0C4CF4E06C1CEAB1
:1008A00011541DBF1CEA135594EA0C0F95EA0C0F66
:1008B00000F0A7F8A4EB050481EA030E52EA033521
:1008C0004FEA013100F088804FEA03334FF0805542
:1008D00045EA131343EA12634FEA022245EA11156F
:1008E00045EA10654FEA00260EF000419D4208BF20
:1008F000964244F1FD0404F5407402D25B084FEACD
:100900003202B61A65EB03055B084FEA32024FF478
:1009100080104FF4002CB6EB020E75EB030E22BFD5
:10092000B61A754640EA0C005B084FEA3202B6EB95
:10093000020E75EB030E22BFB61A754640EA5C0044
:100940005B084FEA3202B6EB020E75EB030E22BFD4
:10095000B61A754640EA9C005B084FEA3202B6EBD5
:10096000020E75EB030E22BFB61A754640EADC0094
:1009700055EA060E18D04FEA051545EA16754FEAF6
:1009800006164FEAC30343EA52734FEAC2025FEA14
:100990001C1CC0D111F4801F0BD141EA00014FF0A3
:1009A00000004FF0004CB6E711F4801F04BF014374
:1009B0000020B4F1FD0C88BFBCF5E06F3FF6AFAE90
:1009C000B5EB030C04BFB6EB020C5FEA500C50F120
:1009D000000041EB045170BD0EF0004E4EEA1131A3
:1009E00014EB5C04C2BFD4EB0C0541EA045170BDAA
:1009F00041F480114FF0000E013C90E645EA060EEE
:100A00008DE60CEA135594EA0C0F08BF95EA0C0F1B
:100A10003FF43BAF94EA0C0F0AD150EA01347FF463
:100A200034AF95EA0C0F7FF425AF104619462CE73A
:100A300095EA0C0F06D152EA03353FF4FDAE10469D
:100A4000194622E750EA410618BF52EA43067FF4EE
:100A5000C5AE50EA41047FF40DAF52EA43057FF47E
:100A6000EBAE12E74FF0FF3C06E000BF4FF0010C89
:100A700002E000BF4FF0010C4DF804CD4FEA410CED
:100A80007FEA6C5C4FEA430C18BF7FEA6C5C1BD0BA
:100A900001B050EA410C0CBF52EA430C91EA030F3B
:100AA00002BF90EA020F0020704710F1000F91EA98
:100AB000030F58BF994208BF90422CBFD8176FEA66
:100AC000E37040F0010070474FEA410C7FEA6C5C34
:100AD00002D150EA013C07D14FEA430C7FEA6C5C3B
:100AE000D6D152EA033CD3D05DF8040B704700BF67
:100AF0008446104662468C461946634600E000BFB5
:100B000001B5FFF7B7FF002848BF10F1000F01BD86
:100B10004DF808EDFFF7F4FF0CBF012000205DF851
:100B200008FB00BF4DF808EDFFF7EAFF34BF0120D6
:100B300000205DF808FB00BF4DF808EDFFF7E0FF6F
:100B400094BF012000205DF808FB00BF4DF808EDC0
:100B5000FFF7CEFF94BF012000205DF808FB00BF27
:100B60004DF808EDFFF7C4FF34BF012000205DF809
:100B700008FB00BF4FEA410C7FEA6C5C02D150EAEF
:100B8000013C0AD14FEA430C7FEA6C5C02D152EA85
:100B9000033C02D14FF0000070474FF00100704756
:100BA0004FEA410212F5001215D211D56FF4787395
:100BB000B3EB625212D94FEAC12343F0004343EA38
:100BC000505311F0004F23FA02F018BF4042704713
:100BD0004FF00000704750EA013005D111F000409D
:100BE00008BF6FF0004070474FF00000704700BF33
:100BF00080F0004002E000BF81F0004142001FBFD2
:100C00005FEA410392EA030F7FEA226C7FEA236CDA
:100C10006AD04FEA1262D2EB1363C1BFD2184140CF
:100C200048404140B8BF5B42192B88BF704710F065
:100C3000004F40F4000020F07F4018BF404211F008
:100C4000004F41F4000121F07F4118BF494292EA70
:100C5000030F3FD0A2F1010241FA03FC10EB0C009C
:100C6000C3F1200301FA03F100F0004302D5494229
:100C700060EB4000B0F5000F13D3B0F1807F06D3D6
:100C800040084FEA310102F10102FE2A51D2B1F1CE
:100C9000004F40EBC25008BF20F0010040EA0300C3
:100CA0007047490040EB0000013A28BFB0F5000F43
:100CB000EDD2B0FA80FCACF1080CB2EB0C0200FAF9
:100CC0000CF0AABF00EBC25052421843BCBFD04048
:100CD0001843704792F0000F81F4000106BF80F4C2
:100CE00000000132013BB5E74FEA41037FEA226C85
:100CF00018BF7FEA236C21D092EA030F04D092F050
:100D0000000F08BF0846704790EA010F1CBF002083
:100D1000704712F07F4F04D1400028BF40F00040E0
:100D2000704712F100723CBF00F50000704700F000
:100D3000004343F0FE4040F4000070477FEA226227
:100D400016BF08467FEA23630146420206BF5FEAF8
:100D5000412390EA010F40F4800070474FF00003F8
:100D600004E000BF10F0004348BF40425FEA000CBF
:100D700008BF704743F0964301464FF000001CE067
:100D800050EA010208BF70474FF000030AE000BFBD
:100D900050EA010208BF704711F0004302D54042FB
:100DA00061EB41015FEA010C02BF8446014600206D
:100DB00043F0B64308BFA3F18053A3F50003BCFA88
:100DC0008CF2083AA3EBC25310DB01FA02FC634435
:100DD00000FA02FCC2F12002BCF1004F20FA02F23C
:100DE00043EB020008BF20F00100704702F120022F
:100DF00001FA02FCC2F1200250EA4C0021FA02F290
:100E000043EB020008BF20EADC70704742000ED2BC
:100E1000B2F1FE4F0BD34FF09E03B3EB126209D435
:100E20004FEA002343F0004323FA02F070474FF0EB
:100E30000000704712F1610F01D1420202D14FF060
:100E4000FF3070474FF00000704700BF80B584B09E
:100E500000AF0346FB80114B1B88C3F580534FF650
:100E6000FF7292FBF3F31846FFF77CFF0346FB602B
:100E7000FB880A4A12889B1A1846FFF773FF03463D
:100E8000F9681846FFF76CF903461846FFF7BEFFEE
:100E900003469BB218461037BD4680BD480300206C
:100EA00080B500AF00F08CFC00F068F800F00CFAA0
:100EB00000F0ECF900F0BEF800F070F900F0BCF9B9
:100EC00000F0F6F8074801F09FF8074802F096FB9B
:100ED00001220649034800F0ADFD0021044802F05C
:100EE0002FFCFEE7F8010020B4020020440300209C
:100EF0006C02002080B582B000AF7860184B1B7880
:100F0000002B0AD1174B1A88174B1A80144B1B78E9
:100F10000133DAB2124B1A701EE0124B1B881846CE
:100F2000FFF794FF03461A46104B1A800F4B1A889E
:100F30004FF080435A630D4B1B881A460C490D48ED
:100F400003F08EFF0B48FFF703F903469AB26423C0
:100F50000849094803F072F900BF0837BD4680BD53
:100F60004A030020440300204803002046030020D9
:100F7000687300084C030020FC02002080B594B088
:100F800000AF07F1280328220021184603F000FBD8
:100F900007F1140300221A605A609A60DA601A613D
:100FA0003B1D00221A605A609A60DA600123BB621E
:100FB0004FF48033FB6200233B630123BB630223B6
:100FC0007B644FF48033BB644FF4E013FB6407F1A0
:100FD0002803184601F046FD0346002B01D000F01F
:100FE00095F90F237B610223BB610023FB614FF462
:100FF00080633B6200237B6207F1140302211846E1
:1010000001F0B2FF0346002B01D000F07FF902236C
:101010007B604FF40043FB603B1D184602F032F941
:101020000346002B01D000F071F900BF5037BD46D8
:1010300080BD000080B584B000AF3B1D00221A6067
:101040005A609A60184B194A1A60174B00229A602E
:10105000154B00221A73144B00221A75124B4FF4D1
:101060000022DA61104B00225A600F4B01221A61F4
:101070000D4800F007FC0346002B01D000F046F9B4
:1010800007237B600123BB600023FB603B1D1946E7
:10109000054800F0BFFD0346002B01D000F036F9F3
:1010A00000BF1037BD4680BDF8010020002401407C
:1010B00080B58EB000AF07F1280300221A605A6095
:1010C0009A60DA6007F1200300221A605A603B1D23
:1010D00000221A605A609A60DA601A615A619A6155
:1010E0002D4B4FF080421A602B4B00225A602A4B46
:1010F00000229A60284B4FF6FF72DA60264B0022DE
:101100001A61254B80229A61234802F027FA034690
:10111000002B01D000F0FAF84FF48053BB6207F1C6
:10112000280319461C4802F06FFC0346002B01D02F
:1011300000F0ECF8184802F0ABFA0346002B01D09F
:1011400000F0E4F800233B6200237B6207F12003F8
:101150001946114802F0C4FF0346002B01D000F0ED
:10116000D5F860237B600023BB600023FB60002375
:101170007B613B1D00221946074802F083FB0346B2
:10118000002B01D000F0C2F8034800F07FF900BF47
:101190003837BD4680BD00BF6C02002080B586B0E8
:1011A00000AF07F1080300221A605A609A60DA6003
:1011B0003B4600221A605A601D4B1E4A1A601C4BA7
:1011C0004FF47A725A601A4B00229A60184B4FF40F
:1011D000E152DA60164B00221A61154B00229A6127
:1011E000134802F0BBF90346002B01D000F08EF843
:1011F0004FF48053BB6007F1080319460C4802F016
:1012000003FC0346002B01D000F080F820233B6054
:1012100000237B603B461946054802F061FF034608
:10122000002B01D000F072F800BF1837BD4680BD1A
:10123000B40200200004004080B500AF114B124AF8
:101240001A60104B4FF416525A600E4B00229A60EF
:101250000C4B0022DA600B4B00221A61094B0C2266
:101260005A61084B00229A61064B0022DA61054858
:1012700002F094FF0346002B01D000F047F800BFB6
:1012800080BD00BFFC0200200038014080B582B064
:1012900000AF0C4B5B690B4A43F001035361094BF0
:1012A0005B6903F001037B607B68002200210B2057
:1012B00001F02FF80B2001F048F800BF0837BD46B9
:1012C00080BD00BF0010024080B483B000AF0E4B61
:1012D0009B690D4A43F0200393610B4B9B6903F01C
:1012E00020037B607B68084B9B69074A43F004033B
:1012F0009361054B9B6903F004033B603B6800BFAF
:101300000C37BD4680BC70470010024080B400AF6F
:1013100072B600BFFEE7000080B483B000AF0E4B92
:101320009B690D4A43F0010393610B4B9B6903F0EA
:1013300001037B607B68084BDB69074A43F08053FD
:10134000D361054BDB6903F080533B603B6800BF12
:101350000C37BD4680BC70470010024080B588B095
:1013600000AF786007F1100300221A605A609A609B
:10137000DA607B681B68284A934249D1274B9B69F6
:10138000264A43F400739361244B9B6903F4007372
:10139000FB60FB68214B9B69204A43F00403936187
:1013A0001E4B9B6903F00403BB60BB6880233B6159
:1013B00003237B6107F110031946194801F0CEF9A8
:1013C000184B194A1A60174B00225A60154B00221D
:1013D0009A60144B8022DA60124B4FF480721A61CB
:1013E000104B4FF480625A610E4B20229A610D4BD4
:1013F0000022DA610B4800F0C3FF0346002B01D046
:10140000FFF784FF7B68074A1A62064A7B685362CB
:1014100000BF2037BD4680BD0024014000100240BF
:1014200000080140280200200800024080B485B076
:1014300000AF78607B681B68B3F1804F0CD1114B13
:10144000DB69104A43F00103D3610E4BDB6903F003
:101450000103FB60FB6810E07B681B680A4A93424B
:101460000BD1084BDB69074A43F00203D361054BFC
:10147000DB6903F00203BB60BB6800BF1437BD46E5
:1014800080BC7047001002400004004080B588B066
:1014900000AF786007F1100300221A605A609A606A
:1014A000DA607B681B68B3F1804F17D10D4B9B69E5
:1014B0000C4A43F0040393610A4B9B6903F0040355
:1014C000FB60FB6801233B6102237B610223FB611C
:1014D00007F110031946044801F040F900BF203716
:1014E000BD4680BD001002400008014080B588B0B4
:1014F00000AF786007F1100300221A605A609A600A
:10150000DA607B681B681C4A934231D11B4B9B6994
:101510001A4A43F480439361184B9B6903F4804358
:10152000FB60FB68154B9B69144A43F0040393610D
:10153000124B9B6903F00403BB60BB684FF400735C
:101540003B6102237B610323FB6107F11003194612
:101550000B4801F003F94FF480633B6100237B618A
:101560000023BB6107F110031946054801F0F6F8A6
:1015700000BF2037BD4680BD00380140001002404A
:101580000008014080B400AFFEE780B400AFFEE782
:1015900080B400AFFEE780B400AFFEE780B400AFD8
:1015A000FEE780B400AF00BFBD4680BC704780B48A
:1015B00000AF00BFBD4680BC704780B400AF00BF25
:1015C000BD4680BC704780B500AF00F03FF900BF5A
:1015D00080BD000080B500AF024800F08BFF00BF67
:1015E00080BD00BF2802002080B400AF0123184650
:1015F000BD4680BC704780B582B000AF786039606E
:1016000002F09CFF034616221A604FF0FF33184683
:101610000837BD4680BD80B582B000AF78604FF01E
:10162000FF317868FFF7E7FFFEE780B586B000AFCF
:10163000F860B9607A6000237B610AE0AFF3008054
:101640000146BB685A1CBA60CAB21A707B69013382
:101650007B617A697B689A42F0DB7B6818461837B1
:10166000BD4680BD80B586B000AFF860B9607A60D5
:1016700000237B6109E0BB685A1CBA601B781846DE
:10168000AFF300807B6901337B617A697B689A42A2
:10169000F1DB7B6818461837BD4680BD80B483B047
:1016A00000AF78604FF0FF3318460C37BD4680BC62
:1016B000704780B483B000AF786039603B684FF406
:1016C00000525A60002318460C37BD4680BC704754
:1016D00080B483B000AF7860012318460C37BD4654
:1016E00080BC704780B485B000AFF860B9607A60A4
:1016F000002318461437BD4680BC704780B586B0BD
:1017000000AF7860144A154BD31A7B617B693B614B
:10171000134B1B68002B02D1114B124A1A60104B5D
:101720001A687B6813443A699A4207D202F006FFAE
:1017300003460C221A604FF0FF3309E0084B1B6888
:10174000FB60074B1A687B681344054A1360FB680B
:1017500018461837BD4680BD005000200004000028
:10176000680300208003002080B400AF00BFBD46A6
:1017700080BC7047FFF7F8FF0B480C490C4A002368
:1017800002E0D458C4500433C4188C42F9D3094A37
:10179000094C002301E013600432A242FBD302F0A3
:1017A000D3FEFFF77DFB704700000020DC01002026
:1017B000A4770008DC01002080030020FEE7000081
:1017C00080B500AF084B1B68074A43F01003136055
:1017D000032000F093FD0F2000F008F8FFF79CFDB8
:1017E0000023184680BD00BF0020024080B582B0B3
:1017F00000AF7860124B1A68124B1B7819464FF4F1
:101800007A73B3FBF1F3B2FBF3F3184600F0ABFDD0
:101810000346002B01D001230EE07B680F2B0AD872
:10182000002279684FF0FF3000F073FD064A7B68B4
:101830001360002300E0012318460837BD4680BD31
:1018400000000020080000200400002080B400AF49
:10185000054B1B781A46054B1B681344034A13605B
:1018600000BFBD4680BC7047080000206C0300200C
:1018700080B400AF024B1B681846BD4680BC704761
:101880006C03002080B586B000AF78600023FB7544
:1018900000233B610023BB600023FB607B68002BBF
:1018A00001D10123BEE07B689B68002B7B689B6AAB
:1018B000002B09D17B680022DA627B68002283F862
:1018C00024207868FFF74AFD786800F0F5FA0346AF
:1018D000FB757B689B6A03F01003002B40F0998036
:1018E000FB7D002B40F095807B689B6A23F4885336
:1018F00023F0020343F002027B689A627B685A6815
:101900007B68DB691A437B681B7B5B001343BA6807
:101910001343BB607B689B68B3F5807F03D07B6813
:101920009B68012B02D14FF4807300E000233A69D9
:1019300013433B617B681B7D012B19D17B681B7BAB
:10194000002B09D17B689B69013B5A033B69134318
:1019500043F400633B610BE07B689B6A43F0200229
:101960007B689A627B68DB6A43F001027B68DA621B
:101970007B681B685B6823F469417B681B683A6974
:101980000A435A607B681B689A68284B13407A6840
:101990001268B9680B4393607B689B68B3F5807FDE
:1019A00003D07B689B68012B04D17B681B69013BDA
:1019B0001B05FB607B681B68DB6A23F470017B6896
:1019C0001B68FA680A43DA627B681B689A68184BDE
:1019D0001340BA689A420BD17B680022DA627B68B6
:1019E0009B6A23F0030343F001027B689A6218E0CC
:1019F0007B689B6A23F0120343F010027B689A62B3
:101A00007B68DB6A43F001027B68DA620123FB75C5
:101A100007E07B689B6A43F010027B689A620123AF
:101A2000FB75FB7D18461837BD4680BDFDF7E1FF0D
:101A3000FE0E1FFF80B586B000AFF860B9607A6017
:101A40000023FB75FB681B68644A934204D0FB6863
:101A50001B68634A934206D1604B5B6803F47023B2
:101A6000002B40F0B380FB6893F82430012B01D1A8
:101A70000223AEE0FB68012283F82420F86800F01E
:101A8000C1F90346FB75FB7D002B40F09A80FB6893
:101A90009B6A23F4706323F0010343F48072FB68B4
:101AA0009A62FB681B684E4A934205D14B4B5B68B8
:101AB00003F47023002B15D1FB689B6A23F480127A
:101AC000FB689A62FB681B685B6803F48063002B09
:101AD00026D0FB689B6A23F4405343F48052FB6892
:101AE0009A621DE0FB689B6A43F48012FB689A626D
:101AF000FB681B68394A934204D0FB681B68384A6C
:101B000093420DD1354B5B6803F48063002B07D003
:101B1000FB689B6A23F4405343F48052FB689A624B
:101B2000FB689B6A03F48053002B06D0FB68DB6ADA
:101B300023F00602FB68DA6202E0FB680022DA6248
:101B4000FB68002283F82420FB681B6A254A9A62FE
:101B5000FB681B6A244ADA62FB681B6A234A1A6321
:101B6000FB681B686FF002021A60FB681B689A68CA
:101B7000FB681B6842F480729A60FB68186AFB6815
:101B80001B684C331946BA687B6800F053FCFB684D
:101B90001B689B6803F46023B3F5602F08D1FB68D2
:101BA0001B689A68FB681B6842F4A0029A600FE009
:101BB000FB681B689A68FB681B6842F480129A6095
:101BC00006E0FB68002283F8242001E00123FB7576
:101BD000FB7D18461837BD4680BD00BF002401407C
:101BE000002801403B1F0008B71F0008D31F000852
:101BF00080B483B000AF786000BF0C37BD4680BCB6
:101C0000704780B483B000AF786000BF0C37BD462A
:101C100080BC704780B485B000AF78603960002325
:101C2000FB730023BB607B6893F82430012B01D148
:101C30000223DCE07B68012283F824203B685B6898
:101C4000062B1CD87B681B68596B3B685A68134687
:101C50009B001344053B1F2202FA03F3DB431940A8
:101C60003B6818683B685A6813469B001344053B61
:101C700000FA03F27B681B680A435A633CE03B6846
:101C80005B680C2B1CD87B681B68196B3B685A6817
:101C900013469B001344233B1F2202FA03F3DB434A
:101CA00019403B6818683B685A6813469B00134408
:101CB000233B00FA03F27B681B680A431A631BE0AC
:101CC0007B681B68D96A3B685A6813469B001344BB
:101CD000413B1F2202FA03F3DB4319403B681868BB
:101CE0003B685A6813469B001344413B00FA03F2D9
:101CF0007B681B680A43DA623B681B68092B1CD9A6
:101D00007B681B68D9683B681A6813465B001344FC
:101D10001E3B072202FA03F3DB4319403B68986835
:101D20003B681A6813465B0013441E3B00FA03F23B
:101D30007B681B680A43DA6019E07B681B681969D5
:101D40003B681A6813465B001344072202FA03F348
:101D5000DB4319403B6898683B681A6813465B0090
:101D6000134400FA03F27B681B680A431A613B685C
:101D70001B68102B03D03B681B68112B32D17B688A
:101D80001B681D4A934225D17B681B689B6803F43E
:101D90000003002B26D17B681B689A687B681B6850
:101DA00042F400029A603B681B68102B1AD1134B57
:101DB0001B68134AA2FB03239A0C13469B0013448F
:101DC0005B00BB6002E0BB68013BBB60BB68002BF3
:101DD000F9D107E07B689B6A43F020027B689A6236
:101DE0000123FB737B68002283F82420FB7B1846C9
:101DF0001437BD4680BC704700240140000000201D
:101E000083DE1B4380B584B000AF78600023FB60A5
:101E10000023BB607B681B689B6803F00103012BF8
:101E200040D07B681B689A687B681B6842F001029F
:101E30009A601F4B1B681F4AA2FB03239B0CBB60CD
:101E400002E0BB68013BBB60BB68002BF9D1FFF728
:101E50000FFDF8601FE0FFF70BFD0246FB68D31A89
:101E6000022B18D97B681B689B6803F00103012BC8
:101E700011D07B689B6A43F010027B689A627B6892
:101E8000DB6A43F001027B68DA627B68002283F838
:101E90002420012307E07B681B689B6803F0010393
:101EA000012BD8D1002318461037BD4680BD00BF96
:101EB0000000002083DE1B4380B584B000AF786053
:101EC0000023FB607B681B689B6803F00103012B08
:101ED0002ED17B681B689A687B681B6822F0010220
:101EE0009A60FFF7C5FCF8601BE0FFF7C1FC0246F3
:101EF000FB68D31A022B14D97B681B689B6803F01C
:101F00000103012B0DD17B689B6A43F010027B68B3
:101F10009A627B68DB6A43F001027B68DA62012324
:101F200007E07B681B689B6803F00103012BDCD092
:101F3000002318461037BD4680BD80B584B000AF81
:101F400078607B685B6AFB60FB689B6A03F0500308
:101F5000002B27D1FB689B6A43F40072FB689A62EE
:101F6000FB681B689B6803F46023B3F5602F15D1F1
:101F7000FB681B7B002B11D1FB689B6A23F48072EA
:101F8000FB689A62FB689B6A03F48053002B05D1BF
:101F9000FB689B6A43F00102FB689A62F868FEF7EF
:101FA000A9FF04E0FB681B6A1B6B7868984700BFB9
:101FB0001037BD4680BD80B584B000AF78607B68C7
:101FC0005B6AFB60F868FFF713FE00BF1037BD4681
:101FD00080BD80B584B000AF78607B685B6AFB60D1
:101FE000FB689B6A43F04002FB689A62FB68DB6A0D
:101FF00043F00402FB68DA62F868FFF702FE00BFF4
:102000001037BD4680BD000090B587B000AF786046
:102010000023FB750023FB607B6893F82430012BC1
:1020200001D1022397E07B68012283F8242078689D
:10203000FFF742FF0346FB757868FFF7E3FE0346B0
:10204000FB75FB7D002B40F081807B689B6A23F44D
:10205000885323F0020343F002027B689A62404BEC
:102060001C68022001F0C4F90346B4FBF3F35B00E3
:10207000FB6002E0FB68013BFB60FB68002BF9D1D1
:102080007B681B689A687B681B6842F008029A604C
:10209000FFF7EEFB38611BE0FFF7EAFB02463B6906
:1020A000D31A0A2B14D97B681B689B6803F00803BA
:1020B000002B0DD07B689B6A23F0120343F01002C3
:1020C0007B689A627B68002283F82420012342E027
:1020D0007B681B689B6803F00803002BDCD17B68DE
:1020E0001B689A687B681B6842F004029A60FFF7DD
:1020F000BFFB38611BE0FFF7BBFB02463B69D31A0D
:102100000A2B14D97B681B689B6803F00403002B1F
:102110000DD07B689B6A23F0120343F010027B68AA
:102120009A627B68002283F82420012313E07B68F5
:102130001B689B6803F00403002BDCD17B689B6A5F
:1021400023F0030343F001027B689A627B6800225C
:1021500083F82420FB7D18461C37BD4690BD00BF88
:102160000000002080B485B000AF78607B6803F089
:102170000703FB600C4BDB68BB60BA684FF6FF03DC
:102180001340BB60FB681A02BB68134343F0BF6394
:1021900043F40033BB60044ABB68D36000BF14370C
:1021A000BD4680BC704700BF00ED00E080B400AFCA
:1021B000044BDB681B0A03F007031846BD4680BCCE
:1021C000704700BF00ED00E080B483B000AF03466D
:1021D000FB7197F90730002B0BDBFB7903F01F0233
:1021E000064997F907305B09012000FA02F241F82D
:1021F000232000BF0C37BD4680BC704700E100E0E3
:1022000080B483B000AF03463960FB7197F90730A3
:10221000002B0ADB3B68DAB20C4997F90730120150
:10222000D2B20B4483F800230AE03B68DAB20849D3
:10223000FB7903F00F03043B1201D2B20B441A7670
:1022400000BF0C37BD4680BC704700BF00E100E016
:1022500000ED00E080B489B000AFF860B9607A604A
:10226000FB6803F00703FB61FB69C3F10703042B61
:1022700028BF0423BB61FB690433062B02D9FB6929
:10228000033B00E000237B614FF0FF32BB6902FAA1
:1022900003F3DA43BB681A407B699A404FF0FF3181
:1022A0007B6901FA03F3D9437B680B40134318465B
:1022B0002437BD4680BC704780B582B000AF7860DF
:1022C0007B68013BB3F1807F01D301230FE00A4A11
:1022D0007B68013B53600F214FF0FF30FFF790FF09
:1022E000054B00229A60044B07221A60002318460F
:1022F0000837BD4680BD00BF10E000E080B582B069
:1023000000AF78607868FFF72DFF00BF0837BD4643
:1023100080BD80B586B000AF0346B9607A60FB73BC
:1023200000237B61FFF742FF78617A68B9687869BA
:10233000FFF790FF024697F90F3011461846FFF756
:102340005FFF00BF1837BD4680BD80B582B000AFCB
:102350000346FB7197F907301846FFF735FF00BFBA
:102360000837BD4680BD80B582B000AF7860786820
:10237000FFF7A2FF034618460837BD4680BD0000A0
:1023800080B485B000AF78600023FB607B68002BD1
:1023900001D1012343E07B681B681A46224B13449A
:1023A000224AA2FB03231B099A007B681A647B68FC
:1023B0001F4ADA637B68022283F821207B681B684E
:1023C0001B68FB60FB6823F47F5323F03003FB6042
:1023D0007B685A687B689B681A437B68DB681A4392
:1023E0007B681B691A437B685B691A437B689B693E
:1023F0001A437B68DB691343FA681343FB607B680D
:102400001B68FA681A607B6800229A637B68012265
:1024100083F821207B68002283F8202000231846BF
:102420001437BD4680BC7047F8FFFDBFCDCCCCCC87
:102430000000024080B586B000AFF860B9607A60F5
:102440003B600023FB75FB6893F82030012B01D122
:1024500002234BE0FB68012283F82020FB6893F8FD
:102460002130DBB2012B3AD1FB68022283F8212014
:10247000FB6800229A63FB681B681A68FB681B688C
:1024800022F001021A603B687A68B968F86800F0C7
:1024900037F9FB68DB6A002B08D0FB681B681A68F9
:1024A000FB681B6842F00E021A600FE0FB681B68B5
:1024B0001A68FB681B6822F004021A60FB681B683C
:1024C0001A68FB681B6842F00A021A60FB681B6806
:1024D0001A68FB681B6842F001021A6005E0FB689D
:1024E000002283F820200223FB75FB7D1846183755
:1024F000BD4680BD80B584B000AF78607B68DB6B83
:102500001B68FB607B681B681B68BB607B681B6C7F
:1025100004229A40FB681340002B4FD0BB6803F0A5
:102520000403002B4AD07B681B681B6803F0200360
:10253000002B07D17B681B681A687B681B6822F038
:1025400004021A607B681B68664A934229D07B6844
:102550001B68654A934222D07B681B68634A93429A
:102560001AD07B681B68624A934212D07B681B6852
:10257000604A93420AD07B681B685F4A934202D14B
:102580004FF480030EE04FF080630BE04FF48023A4
:1025900008E04FF4804305E04FF4806302E04023FD
:1025A00000E00423554A53607B68DB6A002B00F08F
:1025B00094807B68DB6A786898478EE07B681B6C48
:1025C00002229A40FB681340002B56D0BB6803F0F0
:1025D0000203002B51D07B681B681B6803F02003AB
:1025E000002B0BD17B681B681A687B681B6822F084
:1025F0000A021A607B68012283F821207B681B682D
:10260000384A934229D07B681B68374A934222D0CC
:102610007B681B68354A93421AD07B681B68344A32
:10262000934212D07B681B68324A93420AD07B687F
:102630001B68314A934202D14FF400130EE04FF071
:1026400000730BE04FF4003308E04FF4005305E053
:102650004FF4007302E0202300E00223274A536076
:102660007B68002283F820207B689B6A002B34D093
:102670007B689B6A786898472FE07B681B6C082210
:102680009A40FB681340002B28D0BB6803F0080376
:10269000002B23D07B681B681A687B681B6822F0BC
:1026A0000E021A607B681A6C7B68DB6B012101FAF1
:1026B00002F25A607B6801229A637B68012283F8E8
:1026C00021207B68002283F820207B681B6B002B75
:1026D00004D07B681B6B7868984700BF00BF103739
:1026E000BD4680BD080002401C0002403000024090
:1026F00044000240580002406C00024000000240CA
:1027000080B485B000AFF860B9607A603B60FB6868
:102710001A6CFB68DB6B012101FA02F25A60FB685C
:102720001B683A685A60FB685B68102B08D1FB682D
:102730001B687A689A60FB681B68BA68DA6007E011
:10274000FB681B68BA689A60FB681B687A68DA6085
:1027500000BF1437BD4680BC7047000080B48BB00A
:1027600000AF7860396000237B6200233B6269E13F
:1027700001227B6A02FA03F3FB613B681B68FA697A
:102780001340BB61BA69FB699A4240F058813B68CB
:102790005B689A4A93425ED0984A934275D8984AA9
:1027A000934258D0964A93426FD8964A934252D059
:1027B000944A934269D8944A93424CD0924A9342A5
:1027C00063D8924A934246D0904A93425DD8122BE6
:1027D0002AD8122B59D801A252F823F05728000802
:1027E0003128000843280008852800088B280008A5
:1027F0008B2800088B2800088B2800088B280008ED
:102800008B2800088B2800088B2800088B280008DC
:102810008B2800088B2800088B2800088B280008CC
:10282000392800084D280008794A934213D02CE03B
:102830003B68DB683B6229E03B68DB6804333B6252
:1028400024E03B68DB6808333B621FE03B68DB68E1
:102850000C333B621AE03B689B68002B02D10423D7
:102860003B6213E03B689B68012B05D108233B6268
:102870007B68FA691A6109E008233B627B68FA69A0
:102880005A6103E000233B6200E000BFBB69FF2BFD
:1028900001D87B6801E07B6804337B61BB69FF2B57
:1028A00002D87B6A9B0002E07B6A083B9B003B618D
:1028B0007B691A680F213B6901FA03F3DB431A4075
:1028C000396A3B6901FA03F31A437B691A603B6872
:1028D0005B6803F08053002B00F0B1804D4B9B6987
:1028E0004C4A43F0010393614A4B9B6903F0010397
:1028F000BB60BB68484A7B6A9B08023352F82330AE
:10290000FB607B6A03F003039B000F2202FA03F3D0
:10291000DB43FA681340FB607B68404A934213D064
:102920007B683F4A93420DD07B683E4A934207D072
:102930007B683D4A934201D1032306E0042304E06F
:10294000022302E0012300E000237A6A02F003027E
:1029500092009340FA681343FB602F497B6A9B08FF
:102960000233FA6841F823203B685B6803F4801364
:10297000002B06D02D4B9A682C49BB6913438B6002
:1029800006E02A4B9A68BB69DB43284913408B60F9
:102990003B685B6803F40013002B06D0234BDA6816
:1029A0002249BB691343CB6006E0204BDA68BB6960
:1029B000DB431E491340CB603B685B6803F4003384
:1029C000002B06D0194B5A681849BB6913434B605A
:1029D00006E0164B5A68BB69DB43144913404B6051
:1029E0003B685B6803F48033002B21D00F4B1A68DF
:1029F0000E49BB6913430B6021E000BF0000321099
:102A00000000311000002210000021100000121000
:102A100000001110001002400000014000080140B9
:102A2000000C01400010014000140140000401406E
:102A30000B4B1A68BB69DB43094913400B607B6A87
:102A400001337B623B681A687B6A22FA03F3002B2E
:102A50007FF48EAE00BF00BF2C37BD4680BC7047F0
:102A60000004014080B586B000AF78607B68002B21
:102A700001D1012372E27B681B6803F00103002B84
:102A800000F08780924B5B6803F00C03042B0CD0A2
:102A90008F4B5B6803F00C03082B12D18C4B5B68E7
:102AA00003F48033B3F5803F0BD1894B1B6803F4EB
:102AB0000033002B6CD07B685B68002B68D101234E
:102AC0004CE27B685B68B3F5803F06D1804B1B68A6
:102AD0007F4A43F4803313602EE07B685B68002BF1
:102AE0000CD17B4B1B687A4A23F480331360784BFC
:102AF0001B68774A23F4802313601DE07B685B68C2
:102B0000B3F5A02F0CD1724B1B68714A43F480239C
:102B100013606F4B1B686E4A43F4803313600BE005
:102B20006B4B1B686A4A23F480331360684B1B6845
:102B3000674A23F4802313607B685B68002B13D003
:102B4000FEF796FE386108E0FEF792FE02463B690A
:102B5000D31A642B01D9032300E25D4B1B6803F4F5
:102B60000033002BF0D014E0FEF782FE386108E05D
:102B7000FEF77EFE02463B69D31A642B01D903237C
:102B8000ECE1534B1B6803F40033002BF0D100E061
:102B900000BF7B681B6803F00203002B63D04C4B23
:102BA0005B6803F00C03002B0BD0494B5B6803F010
:102BB0000C03082B1CD1464B5B6803F48033002BBD
:102BC00016D1434B1B6803F00203002B05D07B6832
:102BD0001B69012B01D00123C0E13D4B1B6823F091
:102BE000F8027B685B69DB00394913430B603AE00C
:102BF0007B681B69002B20D0364B01221A60FEF740
:102C000037FE386108E0FEF733FE02463B69D31A0F
:102C1000022B01D90323A1E12D4B1B6803F0020312
:102C2000002BF0D02A4B1B6823F0F8027B685B690D
:102C3000DB00274913430B6015E0264B00221A6086
:102C4000FEF716FE386108E0FEF712FE02463B6909
:102C5000D31A022B01D9032380E11D4B1B6803F01B
:102C60000203002BF0D17B681B6803F00803002BE4
:102C70003AD07B689B69002B19D0174B01221A6050
:102C8000FEF7F6FD386108E0FEF7F2FD02463B690B
:102C9000D31A022B01D9032360E10D4B5B6A03F0C9
:102CA0000203002BF0D0012000F0CEFA1CE00A4B0A
:102CB00000221A60FEF7DCFD38610FE0FEF7D8FD58
:102CC00002463B69D31A022B08D9032346E100BF11
:102CD000001002400000424280044242924B5B6A74
:102CE00003F00203002BE9D17B681B6803F00403A7
:102CF000002B00F0A6800023FB758B4BDB6903F0F3
:102D00008053002B0DD1884BDB69874A43F08053F9
:102D1000D361854BDB6903F08053BB60BB68012343
:102D2000FB75824B1B6803F48073002B18D17F4B1B
:102D30001B687E4A43F480731360FEF799FD386187
:102D400008E0FEF795FD02463B69D31A642B01D9D2
:102D5000032303E1754B1B6803F48073002BF0D051
:102D60007B68DB68012B06D16F4B1B6A6E4A43F010
:102D7000010313622DE07B68DB68002B0CD16A4BEA
:102D80001B6A694A23F001031362674B1B6A664A98
:102D900023F0040313621CE07B68DB68052B0CD175
:102DA000614B1B6A604A43F0040313625E4B1B6A6B
:102DB0005D4A43F0010313620BE05B4B1B6A5A4A06
:102DC00023F001031362584B1B6A574A23F0040394
:102DD00013627B68DB68002B15D0FEF749FD386174
:102DE0000AE0FEF745FD02463B69D31A41F28832FC
:102DF000934201D90323B1E04B4B1B6A03F002035A
:102E0000002BEED014E0FEF733FD38610AE0FEF748
:102E10002FFD02463B69D31A41F28832934201D911
:102E200003239BE0404B1B6A03F00203002BEED10F
:102E3000FB7D012B05D13C4BDB693B4A23F08053E2
:102E4000D3617B68DB69002B00F08780364B5B68C1
:102E500003F00C03082B61D07B68DB69022B46D1A1
:102E6000334B00221A60FEF703FD386108E0FEF7DD
:102E7000FFFC02463B69D31A022B01D903236DE004
:102E8000294B1B6803F00073002BF0D17B681B6A91
:102E9000B3F5803F08D1244B5B6823F400327B6894
:102EA0009B68214913434B601F4B5B6823F47412EA
:102EB0007B68196A7B685B6A0B431B4913434B6051
:102EC0001B4B01221A60FEF7D3FC386108E0FEF7C5
:102ED000CFFC02463B69D31A022B01D903233DE004
:102EE000114B1B6803F00073002BF0D035E0104B42
:102EF00000221A60FEF7BCFC386108E0FEF7B8FC5F
:102F000002463B69D31A022B01D9032326E0064B64
:102F10001B6803F00073002BF0D11EE07B68DB69B7
:102F2000012B07D1012319E000100240007000407E
:102F3000600042420B4B5B68FB60FB6803F480322D
:102F40007B681B6A9A4206D1FB6803F470127B68A7
:102F50005B6A9A4201D0012300E00023184618372B
:102F6000BD4680BD0010024080B584B000AF7860DF
:102F700039607B68002B01D10123D0E06A4B1B68CC
:102F800003F007033A689A4210D9674B1B6823F095
:102F9000070265493B6813430B60634B1B6803F0F2
:102FA00007033A689A4201D00123B8E07B681B68A6
:102FB00003F00203002B20D07B681B6803F004039E
:102FC000002B05D0594B5B68584A43F4E0635360CB
:102FD0007B681B6803F00803002B05D0534B5B682C
:102FE000524A43F460535360504B5B6823F0F00245
:102FF0007B689B684D4913434B607B681B6803F0FB
:103000000103002B40D07B685B68012B07D1474B45
:103010001B6803F40033002B15D101237FE07B688C
:103020005B68022B07D1414B1B6803F00073002B38
:1030300009D1012373E03D4B1B6803F00203002B11
:1030400001D101236BE0394B5B6823F003027B68FD
:103050005B68364913434B60FEF70AFCF8600AE0F0
:10306000FEF706FC0246FB68D31A41F2883293420F
:1030700001D9032353E02D4B5B6803F00C027B68FE
:103080005B689B009A42EBD1274B1B6803F0070358
:103090003A689A4210D2244B1B6823F00702224957
:1030A0003B6813430B60204B1B6803F007033A682F
:1030B0009A4201D0012332E07B681B6803F00403CD
:1030C000002B08D0194B5B6823F4E0627B68DB6857
:1030D000164913434B607B681B6803F00803002B01
:1030E00009D0124B5B6823F460527B681B69DB00DC
:1030F0000E4913434B6000F021F802460B4B5B680E
:103100001B0903F00F030A49CB5C22FA03F3094AB7
:103110001360094B1B681846FEF768FB002318462E
:103120001037BD4680BD00BF0020024000100240A5
:1031300080730008000000200400002080B487B0E5
:1031400000AF0023FB600023BB6000237B610023F2
:103150007B6000233B611E4B5B68FB60FB6803F0F8
:103160000C03042B02D0082B03D027E0194B3B6142
:1031700027E0FB689B0C03F00F03174AD35C7B60CE
:10318000FB6803F48033002B10D0114B5B685B0CA1
:1031900003F00103114AD35CBB607B680D4A03FB5B
:1031A00002F2BB68B2FBF3F37B6104E07B680C4A7C
:1031B00002FB03F37B617B693B6102E0054B3B61F2
:1031C00000BF3B6918461C37BD4680BC704700BF36
:1031D0000010024000127A0098730008A8730008DB
:1031E00000093D0080B400AF024B1B681846BD4685
:1031F00080BC70470000002080B500AFFFF7F2FFF1
:103200000246054B5B681B0A03F007030349CB5CCE
:1032100022FA03F3184680BD0010024090730008A4
:1032200080B500AFFFF7DEFF0246054B5B68DB0AA7
:1032300003F007030349CB5C22FA03F3184680BD71
:10324000001002409073000880B485B000AF786031
:103250000A4B1B680A4AA2FB03235B0A7A6802FB3B
:1032600003F3FB6000BFFB685A1EFA60002BF9D124
:1032700000BF00BF1437BD4680BC7047000000206F
:10328000D34D621080B586B000AF786000233B61FB
:103290000023FB607B681B6803F00103002B7DD0DB
:1032A0000023FB754F4BDB6903F08053002B0DD1DE
:1032B0004C4BDB694B4A43F08053D361494BDB698C
:1032C00003F08053BB60BB680123FB75464B1B6852
:1032D00003F48073002B18D1434B1B68424A43F41C
:1032E00080731360FEF7C4FA386108E0FEF7C0FA95
:1032F00002463B69D31A642B01D903236DE03A4B94
:103300001B6803F48073002BF0D0364B1B6A03F468
:103310004073FB60FB68002B2ED07B685B6803F476
:103320004073FA689A4227D02E4B1B6A23F44073ED
:10333000FB602E4B01221A602C4B00221A60294A96
:10334000FB681362FB6803F00103002B14D0FEF747
:103350008FFA38610AE0FEF78BFA02463B69D31A0E
:1033600041F28832934201D9032336E01D4B1B6A98
:1033700003F00203002BEED01A4B1B6A23F44072B9
:103380007B685B68174913430B62FB7D012B05D1FA
:10339000144BDB69134A23F08053D3617B681B68AD
:1033A00003F00203002B08D00E4B5B6823F440426D
:1033B0007B689B680B4913434B607B681B6803F079
:1033C0001003002B08D0074B5B6823F480027B6856
:1033D000DB68044913434B60002318461837BD4689
:1033E00080BD00BF00100240007000404004424217
:1033F00080B588B000AF786000237B610023FB615B
:1034000000233B610023FB600023BB617B68102B22
:103410000AD07B68102B00F28A807B68012B45D094
:103420007B68022B75D082E0464B5B68FB60454BA6
:103430001B6803F08073002B7BD0FB689B0C03F0B0
:103440000F03414AD35C3B61FB6803F48033002BDC
:1034500015D03C4B5B685B0C03F001033B4AD35C2B
:103460007B61FB6803F48033002B0DD0384A7B6905
:10347000B2FBF3F23B6902FB03F3FB6104E03B693F
:10348000344A02FB03F3FB612E4B5B6803F48003B9
:10349000B3F5800F02D1FB69BB614AE0FB695B00B9
:1034A0002D4AA2FB03235B08BB6142E0254B1B6A4C
:1034B000FB60FB6803F44073B3F5807F08D1FB68C1
:1034C00003F00203002B03D04FF40043BB611FE065
:1034D000FB6803F44073B3F5007F09D1194B5B6AB5
:1034E00003F00203002B03D049F64043BB610FE019
:1034F000FB6803F44073B3F5407F1CD1114B1B688C
:1035000003F40033002B16D04FF22443BB6112E0CA
:1035100011E0FFF785FE02460A4B5B689B0B03F048
:10352000030301335B00B2FBF3F3BB6104E000BFB4
:1035300002E000BF00E000BFBB6918462037BD466F
:1035400080BD00BF00100240AC730008BC730008CF
:1035500000127A0000093D00ABAAAAAA80B582B089
:1035600000AF78607B68002B01D1012341E07B68CC
:1035700093F83D30DBB2002B06D17B68002283F844
:103580003C207868FDF752FF7B68022283F83D20DB
:103590007B681A687B6804331946104600F0FCFA11
:1035A0007B68012283F846207B68012283F83E2055
:1035B0007B68012283F83F207B68012283F840204A
:1035C0007B68012283F841207B68012283F8422036
:1035D0007B68012283F843207B68012283F8442022
:1035E0007B68012283F845207B68012283F83D2017
:1035F000002318460837BD4680BD000080B485B062
:1036000000AF78607B6893F83D30DBB2012B01D0CE
:10361000012332E07B68022283F83D207B681B682F
:10362000184A93420ED07B681B68B3F1804F09D0D3
:103630007B681B68144A934204D07B681B68134A5A
:10364000934211D17B681B689B6803F00703FB6002
:10365000FB68062B10D07B681B681A687B681B68A8
:1036600042F001021A6007E07B681B681A687B68F9
:103670001B6842F001021A60002318461437BD4649
:1036800080BC7047002C014000040040000800404E
:1036900080B582B000AF78607B68002B01D1012338
:1036A00041E07B6893F83D30DBB2002B06D17B68AC
:1036B000002283F83C20786800F039F87B68022209
:1036C00083F83D207B681A687B68043319461046EE
:1036D00000F062FA7B68012283F846207B680122B1
:1036E00083F83E207B68012283F83F207B6801221B
:1036F00083F840207B68012283F841207B68012207
:1037000083F842207B68012283F843207B680122F2
:1037100083F844207B68012283F845207B680122DE
:1037200083F83D20002318460837BD4680BD80B48D
:1037300083B000AF786000BF0C37BD4680BC7047D7
:1037400080B584B000AF786039603B68002B09D148
:103750007B6893F83E30DBB2012B14BF01230023BA
:10376000DBB222E03B68042B09D17B6893F83F3041
:10377000DBB2012B14BF01230023DBB215E03B6851
:10378000082B09D17B6893F84030DBB2012B14BFC2
:1037900001230023DBB208E07B6893F84130DBB201
:1037A000012B14BF01230023DBB2002B01D0012326
:1037B0005EE03B68002B04D17B68022283F83E2048
:1037C00013E03B68042B04D17B68022283F83F207E
:1037D0000BE03B68082B04D17B68022283F8402071
:1037E00003E07B68022283F841207B681B6801228A
:1037F0003968184600F050FC7B681B681E4A9342EB
:1038000007D17B681B685A6C7B681B6842F40042D6
:103810005A647B681B68184A93420ED07B681B6809
:10382000B3F1804F09D07B681B68144A934204D0DF
:103830007B681B68124A934211D17B681B689B68A6
:1038400003F00703FB60FB68062B10D07B681B6846
:103850001A687B681B6842F001021A6007E07B6807
:103860001B681A687B681B6842F001021A6000231B
:1038700018461037BD4680BD002C014000040040B2
:103880000008004080B586B000AFF860B9607A608B
:103890000023FB75FB6893F83C30012B01D1022318
:1038A000AEE0FB68012283F83C207B680C2B00F221
:1038B0009F8001A252F823F0ED380008F13900088A
:1038C000F1390008F13900082D390008F1390008F4
:1038D000F1390008F13900086F390008F1390008A2
:1038E000F1390008F1390008AF390008FB681B689E
:1038F000B968184600F0B2F9FB681B689A69FB6862
:103900001B6842F008029A61FB681B689A69FB68B1
:103910001B6822F004029A61FB681B689969BB6806
:103920001A69FB681B680A439A6164E0FB681B68BC
:10393000B968184600F0F8F9FB681B689A69FB68DB
:103940001B6842F400629A61FB681B689A69FB6815
:103950001B6822F480629A61FB681B689969BB68E6
:103960001B691A02FB681B680A439A6143E0FB6803
:103970001B68B968184600F041FAFB681B68DA69F1
:10398000FB681B6842F00802DA61FB681B68DA69B1
:10399000FB681B6822F00402DA61FB681B68D969C6
:1039A000BB681A69FB681B680A43DA6123E0FB689D
:1039B0001B68B968184600F08BFAFB681B68DA6967
:1039C000FB681B6842F40062DA61FB681B68DA6915
:1039D000FB681B6822F48062DA61FB681B68D969A6
:1039E000BB681B691A02FB681B680A43DA6102E0C4
:1039F0000123FB7500BFFB68002283F83C20FB7DA0
:103A000018461837BD4680BD80B584B000AF7860D9
:103A100039600023FB737B6893F83C30012B01D1A4
:103A20000223B4E07B68012283F83C207B680222F9
:103A300083F83D207B681B689B68BB60BB6823F0F4
:103A40007703BB60BB6823F47F43BB607B681B6864
:103A5000BA689A603B681B68B3F5005F3ED0B3F567
:103A6000005F00F28780B3F5805F00F08680B3F5D9
:103A7000805F7FD8702B1AD0702B7BD8602B50D0F2
:103A8000602B77D8502B3CD0502B73D8402B58D07C
:103A9000402B6FD8302B64D0302B6BD8202B60D0CC
:103AA000202B67D8002B5CD0102B5AD062E07B68AB
:103AB00018683B6899683B685A683B68DB6800F0A7
:103AC000CCFA7B681B689B68BB60BB6843F07703DC
:103AD000BB607B681B68BA689A604FE07B681868B7
:103AE0003B6899683B685A683B68DB6800F0B5FA48
:103AF0007B681B689A687B681B6842F480429A6006
:103B00003CE07B6818683B6859683B68DB681A468C
:103B100000F02CFA7B681B685021184600F083FAED
:103B20002CE07B6818683B6859683B68DB681A467C
:103B300000F04AFA7B681B686021184600F073FAAF
:103B40001CE07B6818683B6859683B68DB681A466C
:103B500000F00CFA7B681B684021184600F063FAFD
:103B60000CE07B681A683B681B681946104600F039
:103B70005AFA03E00123FB7300E000BF7B680122D7
:103B800083F83D207B68002283F83C20FB7B1846AD
:103B90001037BD4680BD000080B485B000AF7860AE
:103BA00039607B681B68FB607B68294A93420BD0B5
:103BB0007B68B3F1804F07D07B68264A934203D0DD
:103BC0007B68254A934208D1FB6823F07003FB60B1
:103BD0003B685B68FA681343FB607B681C4A93424E
:103BE0000BD07B68B3F1804F07D07B68194A9342B2
:103BF00003D07B68184A934208D1FB6823F44073D2
:103C0000FB603B68DB68FA681343FB60FB6823F0EA
:103C100080023B685B691343FB607B68FA681A604B
:103C20003B689A687B68DA623B681A687B689A62CC
:103C30007B68074A934203D13B681A697B681A6321
:103C40007B6801225A6100BF1437BD4680BC7047B3
:103C5000002C0140000400400008004080B487B000
:103C600000AF786039607B681B6A7B617B681B6A88
:103C700023F001027B681A627B685B683B617B68AA
:103C80009B69FB60FB6823F07003FB60FB6823F01B
:103C90000303FB603B681B68FA681343FB607B69A6
:103CA00023F002037B613B689B687A6913437B6165
:103CB0007B681C4A93420CD17B6923F008037B612B
:103CC0003B68DB687A6913437B617B6923F00403FB
:103CD0007B617B68134A934211D13B6923F4807363
:103CE0003B613B6923F400733B613B685B693A6964
:103CF00013433B613B689B693A6913433B617B68B3
:103D00003A695A607B68FA689A613B685A687B68CE
:103D10005A637B687A691A6200BF1C37BD4680BC53
:103D2000704700BF002C014080B487B000AF7860BE
:103D300039607B681B6A7B617B681B6A23F0100219
:103D40007B681A627B685B683B617B689B69FB6090
:103D5000FB6823F4E043FB60FB6823F44073FB60E3
:103D60003B681B681B02FA681343FB607B6923F006
:103D700020037B613B689B681B017A6913437B616D
:103D80007B681D4A93420DD17B6923F080037B61E0
:103D90003B68DB681B017A6913437B617B6923F015
:103DA00040037B617B68144A934213D13B6923F43F
:103DB00080633B613B6923F400633B613B685B6963
:103DC0009B003A6913433B613B689B699B003A69DE
:103DD00013433B617B683A695A607B68FA689A6171
:103DE0003B685A687B689A637B687A691A6200BF8D
:103DF0001C37BD4680BC7047002C014080B487B0A2
:103E000000AF786039607B681B6A7B617B681B6AE6
:103E100023F480727B681A627B685B683B617B6815
:103E2000DB69FB60FB6823F07003FB60FB6823F039
:103E30000303FB603B681B68FA681343FB607B6904
:103E400023F400737B613B689B681B027A69134310
:103E50007B617B681D4A93420DD17B6923F400632B
:103E60007B613B68DB681B027A6913437B617B697A
:103E700023F480637B617B68144A934213D13B69CE
:103E800023F480533B613B6923F400533B613B685F
:103E90005B691B013A6913433B613B689B691B01EA
:103EA0003A6913433B617B683A695A607B68FA68F8
:103EB000DA613B685A687B68DA637B687A691A6200
:103EC00000BF1C37BD4680BC704700BF002C0140BE
:103ED00080B487B000AF786039607B681B6A3B6153
:103EE0007B681B6A23F480527B681A627B685B687C
:103EF0007B617B68DB69FB60FB6823F4E043FB606C
:103F0000FB6823F44073FB603B681B681B02FA6884
:103F10001343FB603B6923F400533B613B689B68A0
:103F20001B033A6913433B617B680F4A934209D1F3
:103F30007B6923F480437B613B685B699B017A6901
:103F400013437B617B687A695A607B68FA68DA613F
:103F50003B685A687B681A647B683A691A6200BFDA
:103F60001C37BD4680BC7047002C014080B487B030
:103F700000AFF860B9607A60FB681B6A7B61FB6820
:103F80001B6A23F00102FB681A62FB689B693B61B4
:103F90003B6923F0F0033B617B681B013A691343E3
:103FA0003B617B6923F00A037B617A69BB68134339
:103FB0007B61FB683A699A61FB687A691A6200BFA3
:103FC0001C37BD4680BC704780B487B000AFF86036
:103FD000B9607A60FB681B6A7B61FB681B6A23F02F
:103FE0001002FB681A62FB689B693B613B6923F422
:103FF00070433B617B681B033A6913433B617B69F8
:1040000023F0A0037B61BB681B017A6913437B61CA
:10401000FB683A699A61FB687A691A6200BF1C37CB
:10402000BD4680BC704780B485B000AF7860396011
:104030007B689B68FB60FB6823F07003FB603A6859
:10404000FB68134343F00703FB607B68FA689A60E0
:1040500000BF1437BD4680BC704780B487B000AF46
:10406000F860B9607A603B60FB689B687B617B6944
:1040700023F47F437B613B681A027B681A43BB6869
:1040800013437A6913437B61FB687A699A6000BFC6
:104090001C37BD4680BC704780B487B000AFF86065
:1040A000B9607A60BB6803F01F03012202FA03F3D0
:1040B0007B61FB681A6A7B69DB431A40FB681A6202
:1040C000FB681A6ABB6803F01F03796801FA03F3FF
:1040D0001A43FB681A6200BF1C37BD4680BC70479C
:1040E00080B485B000AF786039607B6893F83C306D
:1040F000012B01D1022346E07B68012283F83C209A
:104100007B68022283F83D207B681B685B68FB604C
:104110007B681B689B68BB60FB6823F07003FB60D7
:104120003B681B68FA681343FB607B681B68FA688E
:104130005A607B681B68164A93420ED07B681B68E6
:10414000B3F1804F09D07B681B68124A934204D0B8
:104150007B681B68104A93420CD1BB6823F0800334
:10416000BB603B685B68BA681343BB607B681B68D5
:10417000BA689A607B68012283F83D207B68002240
:1041800083F83C20002318461437BD4680BC704796
:10419000002C0140000400400008004080B582B0BF
:1041A00000AF78607B68002B01D1012342E07B687F
:1041B00093F84130DBB2002B06D17B68002283F8F4
:1041C00040207868FDF792F97B68242283F841202B
:1041D0007B681B68DA687B681B6822F40052DA602F
:1041E000786800F01DF97B681B681A697B681B689A
:1041F00022F490421A617B681B685A697B681B68CD
:1042000022F02A025A617B681B68DA687B681B68A7
:1042100042F40052DA607B6800225A647B682022F4
:1042200083F841207B68202283F842207B680022AB
:104230005A63002318460837BD4680BD80B58AB052
:1042400002AFF860B9603B601346FB8000237B61DE
:10425000FB6893F84130DBB2202B6DD1BB68002B9B
:1042600002D0FB88002B01D1012366E0FB6800220D
:104270005A64FB68212283F84120FDF7F9FA78613E
:10428000FB68FA889A84FB68FA88DA84FB689B6882
:10429000B3F5805F08D1FB681B69002B04D10023B4
:1042A000FB61BB68BB6103E0BB68FB610023BB61D2
:1042B0002AE03B6800937B6900228021F86800F0C7
:1042C00040F80346002B01D0032336E0FB69002BA6
:1042D0000BD1BB691B881A46FB681B68C2F3080236
:1042E0005A60BB690233BB6107E0FB691A78FB685F
:1042F0001B685A60FB690133FB61FB68DB8C9BB276
:10430000013B9AB2FB68DA84FB68DB8C9BB2002B22
:10431000CFD13B6800937B6900224021F86800F010
:1043200010F80346002B01D0032306E0FB6820228F
:1043300083F84120002300E0022318462037BD46C1
:1043400080BD80B590B000AFF860B9603B601346A7
:10435000FB7150E0BB6CB3F1FF3F4CD0BB6C002B4A
:1043600007D0FDF785FA02463B68D31ABA6C9A4229
:1043700041D2FB681B680C33BB62BB6A53E8003F49
:104380007B627B6A23F4D073FB63FB681B680C338E
:10439000FA6B7A633B63396B7A6B41E80023FB620B
:1043A000FB6A002BE5D1FB681B6814337B617B69DA
:1043B00053E8003F3B613B6923F00103BB63FB68AB
:1043C0001B681433BA6B3A62FB61F9693A6A41E8D7
:1043D0000023BB61BB69002BE5D1FB68202283F879
:1043E0004120FB68202283F84220FB68002283F8EA
:1043F000402003230FE0FB681B681A68BB6813406A
:10440000BA689A420CBF01230023DBB21A46FB793B
:104410009A429FD0002318464037BD4680BD000019
:1044200080B584B000AF78607B681B681B6923F49B
:1044300040517B68DA687B681B680A431A617B68B5
:104440009A687B681B691A437B685B691343BB608E
:104450007B681B68DB6823F4B05323F00C037A6895
:104460001268B9680B43D3607B681B685B6923F4EF
:1044700040717B689A697B681B680A435A617B6854
:104480001B682C4A934203D1FEF7CAFEF86002E093
:10449000FEF7B2FEF860FA6813469B0013449A00D8
:1044A0001A447B685B689B00B2FBF3F3224AA2FBD1
:1044B00003235B091901FA6813469B0013449A0011
:1044C0001A447B685B689B00B2FBF3F21A4BA3FBB8
:1044D00002035B09642000FB03F3D31A1B01323390
:1044E000154AA2FB03235B0903F0F0031944FA68A1
:1044F00013469B0013449A001A447B685B689B0038
:10450000B2FBF3F20C4BA3FB02035B09642000FB3C
:1045100003F3D31A1B013233074AA2FB03235B09BF
:1045200003F00F027B681B680A449A6000BF1037D3
:10453000BD4680BD003801401F85EB51014B186816
:10454000704700BF0C00002070B500260C4D0D4CCC
:10455000641BA410A64209D102F0FAFE00260A4DFF
:104560000A4C641BA410A64205D170BD55F8043B4B
:1045700098470136EEE755F8043B98470136F2E7D5
:104580009C7700089C7700089C770008A0770008BB
:1045900003460244934200D1704703F8011BF9E738
:1045A000002B2DE9F0471F46BBBF03F100431F4618
:1045B00000232D2388B01446129A109D1370149B6B
:1045C000DDF84CA023F02008B8F1460F05D0B8F173
:1045D000450F00D10135022300E0032307AA04920E
:1045E00006AACDE902A2CDE9003522463B4600F0FD
:1045F000E3FCB8F1470F064602D1119BDB0722D539
:10460000B8F1460F06EB050910D13378302B0AD1EB
:104610000022002320463946FCF77AFA18B9C5F182
:104620000105CAF80050DAF800309944002200234E
:1046300020463946FCF76CFA08B1CDF81C903022C0
:10464000079B4B4507D33046079B159A9B1B13606E
:1046500008B0BDE8F087591C07911A70F0E70346CF
:10466000F7B5002903F8022BB6BF2D222B224942B1
:10467000092942702BDD0DF10704A4460A2791FB9E
:10468000F7F60A46A64607FB1615632A05F130051C
:10469000314604F1FF340EF8015CF0DC3031AEF14C
:1046A000020504F8011C2946441C61450AD30DF19A
:1046B0000902A2EB0E02654588BF00221344181AB6
:1046C00003B0F0BD11F8012B04F8012FEDE7302302
:1046D00030318370C170031DF1E700002DE9F04F08
:1046E00091B00C46DDF8688016461F46054601F07D
:1046F00051FA036818460993FBF72AFD00230E932D
:10470000D8F800300A90073323F0070303F10802BA
:1047100094F81890D4F800B0C8F80020D3E900232A
:10472000C4E91223D4E9128A2AF000430B934FF014
:10473000FF3240469C4B0B99FCF71CFA70BB4FF0C4
:10474000FF324046984B0B99FCF7F6F930BB00223C
:10475000002340465146FCF7E5F910B12D2384F8BB
:104760004330924B9248B9F1470F94BF9846804628
:1047700003234FF0000A23612BF004032360334628
:104780002146284600970FAA00F0D4F9013040F0E6
:1047900090804FF0FF3011B0BDE8F08F4246534695
:1047A00040465146FCF7E6F948B1BAF1000FB8BFF0
:1047B0002D238048B8BF84F843307F4BD3E763682C
:1047C00009F0DF015A1C42D10623636000220692E1
:1047D0000EAACDE904920DAA4BF4806303920DF169
:1047E0003302CDE9013223606368424600932846D4
:1047F00053460B91FFF7D4FE0B99804647290D993C
:1048000008D1C81C02DB6368994240DDA9F10209A6
:104810005FFA89F9B9F1650F1FD84A46013904F1E9
:1048200050000D91FFF71BFF0E9A82461318012AC4
:10483000236102DC2268D20701D5013323619DF890
:104840003330002B9BD02D2384F8433097E7472942
:10485000BCD1002BBAD10123B7E7B9F1660F18D14B
:10486000002963680BDD216113B92268D00702D5E6
:1048700001330B4423614FF0000AA165DFE713B950
:104880002268D20701D50233F4E70123F2E74FF0A3
:1048900067090E9B994205DB23682161D807EAD599
:1048A0004B1CE7E70029CCBF0122C1F102021344EF
:1048B000E0E723685A0507D4236942463146284673
:1048C000B84701302BD164E7B9F1650F40F2DD80C4
:1048D000D4E9120100220023FCF71AF9002833D092
:1048E000012331462846354AB84701303FF451AFDD
:1048F000DDE90D239A4202DB2368D8070FD5DDE9F5
:10490000092331462846B84701303FF442AF4FF003
:10491000000804F11A090E9B013B434509DC23689A
:104920009B0700F10281E0680F9B9842B8BF1846D0
:1049300031E701234A4631462846B84701303FF463
:1049400028AF08F10108E6E70D9B002B38DC0123B6
:1049500031462846194AB84701303FF41AAFDDE91D
:104960000D23134302D12368D907D8D5DDE90923E4
:1049700031462846B84701303FF40BAF4FF00009ED
:1049800004F11A0A0D9B5B424B4501DC0E9B94E738
:104990000123524631462846B84701303FF4F9AE6C
:1049A00009F10109EEE700BFFFFFEF7FC4730008C4
:1049B000C8730008D0730008CC730008D4730008D3
:1049C0000E9AA36D9A42A8BF1A46002A914637DC78
:1049D0004FF0000B29EAE97904F11A02D4F858A043
:1049E000AAEB09035B4533DCDDE90D239A423BDB8F
:1049F0002368DA0738D40E9B0D99A3EB0A02A3EBC8
:104A000001099145A8BF9146B9F1000F34DC4FF080
:104A1000000829EAE97904F11A0ADDE90D239B1A55
:104A2000A3EB090343457FF77AAF01235246314692
:104A30002846B84701303FF4ACAE08F10108ECE776
:104A40001346314642462846B8470130C0D1A0E659
:104A50000123314628460B92B84701303FF499AE06
:104A60000B9A0BF1010BB9E73146DDE90923284622
:104A7000B8470130BFD18CE64B463146284608EB9B
:104A80000A02B8470130C2D183E60E9A012A01DC3E
:104A9000DB0737D50123424631462846B847013067
:104AA0003FF477AEDDE9092331462846B8470130A7
:104AB0003FF46FAED4E9120100220023FCF728F87E
:104AC000D8B90E9B08F10102013B31462846B84790
:104AD00001300ED15DE601234A4631462846B847EB
:104AE00001303FF456AE08F101080E9B013B4345EF
:104AF000F1DC534604F15002E0E64FF0000804F107
:104B00001A09F2E701234246DFE701234A4631460C
:104B10002846B84701303FF43CAE08F10108E3688D
:104B20000F995B1A4345F0DCFDE64FF0000804F1F5
:104B30001909F4E72DE9F047164699468A680B698A
:104B400007469342B8BF1346336091F843200C46A2
:104B5000DDF820800AB1013333602368990642BF33
:104B6000336802333360256815F0060506D104F179
:104B7000190AE36832689B1AAB4228DC94F8432098
:104B8000131E226818BF012392062DD449463846C9
:104B900004F14302C047013020D02368E56803F0E8
:104BA0000603042B18BF002532684FF00006A368E7
:104BB00008BFAD1A226908BF25EAE5759342C4BF54
:104BC0009B1AED181A34B5421AD1002008E00123CF
:104BD000524649463846C047013003D14FF0FF30B6
:104BE000BDE8F0870135C4E73020E11881F84300C3
:104BF0005A1C94F845102244023382F84310C5E74A
:104C00000123224649463846C0470130E6D00136E6
:104C1000D9E700002DE9FF470F7E9146782F8046A7
:104C20000C469A460C9D01F1430207D8622F0AD820
:104C3000002F00F0D980582F00F0A48004F1420525
:104C400084F842703AE0A7F16303152BF6D801A16E
:104C500051F823F0AD4C0008C14C00083D4C000851
:104C60003D4C00083D4C00083D4C0008C14C00087C
:104C70003D4C00083D4C00083D4C00083D4C0008F0
:104C8000CF4D0008F14C0008B14D00083D4C000824
:104C90003D4C0008F14D00083D4C0008F14C000867
:104CA0003D4C00083D4C0008B94D00082B681A1D0A
:104CB0001B682A6004F1420584F842300123A4E015
:104CC00020682968060601F104030AD50E682B60E6
:104CD000002E03DA2D23764284F843300A235E48FF
:104CE00019E00E6810F0400F2B6018BF36B2EFE7E6
:104CF0002B682068191D2960010601D51E6802E095
:104D00004606FBD51E886F2F0CBF08230A23524886
:104D1000002184F843106568002DA8BF2168A560B4
:104D2000A4BF21F0040121600EB9002D4DD015461D
:104D3000B6FBF3F103FB1167C75D05F8017D37464C
:104D4000BB420E46F4D9082B0BD12368DE0708D5E9
:104D5000236961689942DEBF302305F8013C05F103
:104D6000FF35521B22614B4621464046CDF800A03C
:104D700003AAFFF7DFFE01304CD14FF0FF3004B043
:104D8000BDE8F087344881F845702968236851F8F8
:104D9000046B29601D0614D5DF0744BF43F02003D0
:104DA00023601EB9236823F0200323601023AFE79C
:104DB000236843F0200323607823284884F8453093
:104DC000E3E7590648BFB6B2E6E71546BBE72B68EE
:104DD0002668181D6169286035061B6801D51960B1
:104DE00002E07006FBD51980002315462361BAE75F
:104DF0002B6800211A1D2A601D686268284600F091
:104E0000D5FE08B1401B606063682361002384F80D
:104E10004330A8E72A46494640462369D047013037
:104E2000ABD023689B0713D4E068039B9842B8BFBC
:104E30001846A4E70123324649464046D047013090
:104E40009BD00135E36803995B1AAB42F2DCEBE7D8
:104E5000002504F11906F5E7D6730008E77300088A
:104E60000EB46FF0004100B59CB01DAB02900690EF
:104E7000079104910848094953F8042B05910068EB
:104E800002A9019301F07CFB0022029B1A701CB066
:104E90005DF804EB03B070470C0000200802FFFF30
:104EA0002DE9F74F03690C690746A342C0F28280DF
:104EB000013C00F1140501F1140805EB8403019392
:104EC00058F8243055F8242001339A42B2FBF3F607
:104ED0004FEA840B08EB840931D34FF0000E4046B3
:104EE000AC46F24650F8042B93B206FB03E3120CD7
:104EF0004FEA134E9BB206FB02E2AAEB0303DCF877
:104F000000A04FEA124E1FFA8AFA5344DCF800A0C0
:104F100092B2C2EB1A4202EB23429BB243EA024333
:104F200081454FEA224A4CF8043BDBD255F80B305E
:104F30002BB9019B043B9D421A462FD33C61384656
:104F400001F0CEF8002825DB28464FF0000C013692
:104F500058F8041BD0F800E08BB2ACEB03031FFA47
:104F60008EF213440A0CC2EB1E4202EB23429BB2A8
:104F700043EA0243C1454FEA224C40F8043BE7D2E2
:104F800055F8242005EB840322B9043B9D421A46C0
:104F90000AD33C61304603B0BDE8F08F1268043B91
:104FA000002ACBD1013CC6E71268043B002AF0D1AD
:104FB000013CEBE70020EEE72DE9F04F16461F46D7
:104FC000446A99B00546CDE90467DDF8948074B968
:104FD000102000F0E3FD0246686220B9EA21A84BE8
:104FE000A84801F0DDFBC0E901440460C4606B6ABD
:104FF000196851B15A68012393404A608B60284672
:1050000000F030FE00226B6A1A603B1EAFBF002327
:10501000012223F000430593A8BFC8F80030DDF853
:105020001490994BB8BFC8F8002033EA090319D18E
:1050300042F20F73249A1360C9F31303334300F051
:105040007F85269B53B9914B22E0914B0393083304
:10505000269A1360039819B0BDE8F08F8B4B039329
:105060000333F5E7DDE90434CDE90C34DDE90C0167
:1050700000220023FBF74CFD804658B10123249AFF
:105080001360269B002B00F0588582481860431E51
:105090000393DFE716AB019317AB00932846DDE9D6
:1050A0000C2301F0C5F8C9F30A548346002C7FD0C5
:1050B000DDE90C010D9BA4F2FF34C3F3130343F0AD
:1050C0007F5141F44011CDF84C800022724BFBF728
:1050D000FFF865A3D3E90023FBF7B2FA64A3D3E991
:1050E0000023FBF7F7F8064620460F46FBF73EFA8B
:1050F00061A3D3E90023FBF7A3FA02460B4630462F
:105100003946FBF7E7F806460F46FBF749FD002254
:105110008246002330463946FBF704FD48B150462D
:10512000FBF724FA32463B46FBF7F2FC08B90AF1DA
:10513000FF3ABAF1160F58D8DDE90C01574B03EBD3
:10514000CA03D3E90023FBF7EDFC00284FD000236E
:105150000AF1FF3A0F93169B1C1B631E099349BF6C
:10516000C4F1010300230693002354BF069309935F
:10517000BAF1000F3DDB099BCDF838A053440993E9
:1051800000230A93229B092B00F28C80052BC4BFBD
:10519000043B2293229BC8BF0024A3F10203D8BF83
:1051A0000124032B00F28A80DFE803F02D4F4D5BD2
:1051B000DDE916431C4404F23243202BC3BFC3F184
:1051C000400304F2124009FA03F3C3F12003C6BFFF
:1051D00026FA00F0184306FA03F0FBF7B7F90123AB
:1051E000A1F1F871013C13936FE70123B2E70F902F
:1051F000B1E7069BA3EB0A030693CAF100030A93E7
:1052000000230E93BEE700230B93239B002B58DC57
:105210004FF001094B46CDF82090CDF88C9000223C
:10522000686A4260042202F114069E4241684ED927
:10523000284600F0D7FC039000284CD102464FF4DA
:10524000D571174BCCE60123DEE700230B93239B9C
:105250000AEB030909F10103012B0893B8BF0123ED
:10526000DDE70123F2E700BF61436F63A787D23F09
:10527000B3C8608B288AC63FFB799F501344D33F45
:10528000057400081C7400080000F07F0174000819
:10529000F8730008D57300080000F83F1075000887
:1052A00077740008012400230B9422934FF0FF39F8
:1052B00000221223CDF820902392B0E701230B9314
:1052C000F4E7DDF88C904B46CDF82090A7E701314C
:1052D00041605200A7E76B6A039A1A60089B0E2B85
:1052E00000F2A880002C00F0A580BAF1000F34DD98
:1052F0009A4A0AF00F0302EBC3031AF4807FD3E942
:105300000034CDE910344FEA2A1416D0DDE90C013F
:10531000934B0327D3E90823FBF7BCFACDE904013B
:1053200004F00F048E4E54B9DDE91023DDE90401C9
:10533000FBF7B0FACDE9040129E00227F2E7E10723
:1053400008D5DDE91001D6E90023FBF779F9CDE9AD
:105350001001013764100836E5E700F0A580DDE9AB
:105360000C01CAF100047D4B04F00F0203EBC203F1
:10537000D3E90023FBF764F902270023CDE90401F8
:10538000774E2411002C40F08480002BD2D10F9B4B
:10539000002B00F08B80DDE90434CDE91034DDE929
:1053A000100100226F4BFBF7BDFB00287ED0089B4D
:1053B000002B7BD0B9F1000F38DDDDE910010022B0
:1053C000694BFBF73DF94C46CDE904010AF1FF3882
:1053D00001373846FBF7CAF8DDE90423FBF730F95B
:1053E0000022624BFAF776FFA1F15076CDE9100169
:1053F0001196002C5DD1DDE9040100225C4BFAF727
:1054000067FF02460B46CDE904233346109AFBF7AB
:10541000A7FB002840F09C82DDE90401109A06F108
:105420000043FBF77FFB002840F09082DDE90C345D
:10543000CDE90434179B002BC0F25281BAF10E0F54
:1054400000F34E81454B03EBCA03D3E90034CDE9A9
:105450000634239B002B80F2DB80089B002B00F39B
:10546000D78040F07282DDE906010022404BFBF755
:10547000E7F8DDE90423FBF769FB089C26460028D2
:1054800040F048823123039F0AF1010A07F8013BEB
:1054900044E2E20705D5D6E90023FBF7D1F8012362
:1054A0000137641008366DE7022770E7D046089C84
:1054B0008FE70399294B214412910B9903EBC40305
:1054C000DDE9106753E90223002955D0002029495E
:1054D000FBF7E0F93B463246FAF7FAFECDE9100158
:1054E000039FDDE90401FBF75BFB0446FBF73EF895
:1054F00002460B46DDE90401FAF7EAFE02460B46D6
:105500003034CDE90423DDE9102307F8014BFBF724
:1055100009FB002874D1DDE9042300201149FAF7C2
:10552000D7FEDDE91023FBF7FDFA002840F0B78035
:10553000129B9F423FF47AAFDDE9100100220A4B33
:10554000FBF77EF80022CDE91001DDE90401064BEE
:10555000FBF776F8CDE90401C3E700BF107500083A
:10556000E87400080000F03F0000244000001C40E8
:10557000000014400000E03F30463946FBF760F879
:10558000129BCDE91001039C1493DDE90401FBF7A4
:1055900007FB1590FAF7EAFF02460B46DDE9040126
:1055A000FAF796FE159B0646303304F8013B129B32
:1055B0000F469C424FF0000224D1DDE91001B04BB0
:1055C000FAF788FE02460B4630463946FBF7C8FA22
:1055D000002863D1DDE910230020A949FAF778FEFD
:1055E00002460B4630463946FBF79CFA00283FF44A
:1055F0001DAF149F7B1E149317F8013C302BF8D07D
:10560000C2463BE09F4BFBF71BF8CDE90401BCE72A
:10561000039FDDE90489DDE9062340464946FBF79F
:1056200039F9FBF7BDFA0446FAF7A0FFDDE90623D6
:10563000FBF706F802460B4640464946FAF748FE95
:1056400004F1300607F8016B039EDDF820C0BE1B95
:10565000B44502460B4636D1FAF73CFEDDE9062397
:1056600080468946FBF77CFA58BBDDE906234046B5
:105670004946FBF74DFA08B1E10722D428465946BE
:1056800000F0F0FA00233B70249B0AF1010018603F
:10569000269B002B3FF4DEAC1F60DBE427463B4635
:1056A0001F4613F8012D392A07D1039A9A42F7D1E0
:1056B0003022039908F101080A701A7801321A7031
:1056C0009EE7D046EBE700226E4BFAF7B9FF0022C7
:1056D000002380468946FBF71BFA00289BD0CDE7C4
:1056E0000B9A002A00F0D080229A012A00F3AE80A3
:1056F000139A002A00F0A68003F233430A9C069F07
:10570000069A01211A440692099A28461A440992D7
:1057100000F05EFB0646002F0CDD099B002B09DD27
:10572000BB42A8BF3B46069AFF1AD21A0692099AB4
:10573000D31A09930A9BF3B10B9B002B00F0A880AE
:10574000002C10DD31462246284600F0FFFB5A4669
:1057500001460646284600F051FB80465946284639
:1057600000F080FAC3460A9B1A1B04D0594628460B
:1057700000F0ECFB83460121284600F029FB0E9B3C
:105780000446002B40F386801A460146284600F066
:10579000DDFB229B0446012B7FDD4FF000082369CF
:1057A00004EB8303186900F0C5FAC0F12000099BDF
:1057B000184410F01F0000F09280C0F12003042B69
:1057C00040F38A80C0F11C00069B07440344069303
:1057D000099B03440993069B002B05DD59461A4695
:1057E000284600F00DFC8346099B002B05DD214671
:1057F0001A46284600F004FC04460F9B002B70D08C
:105800002146584600F06CFC00286ADA002359460D
:105810000A22284600F048FA0B9B83460AF1FF3A19
:10582000002B00F09481314600230A22284600F024
:105830003BFAB9F1000F064600F39380229B022B3E
:1058400057DC8EE0169BC3F1360357E7089B5C1EBE
:105850000A9BA342B7BF0A9B1C1BE21A0E9BBEBF4A
:105860000A949B180E93089BB8BF0024002BBBBF63
:10587000069B089A069F9F1AACBF089B00233FE730
:105880000000E03F000024400A9C069F0B9E42E778
:105890000A9A6BE7229B012B19DC049BBBB9059B81
:1058A000C3F313039BB9059B23F000431B0D1B059A
:1058B00083B14FF00108069B01330693099B013326
:1058C00009930E9B002B7FF46AAF01206FE74FF026
:1058D0000008F6E79846F4E73FF47DAF18461C3021
:1058E00072E7089B002B36DC229B022B33DDDDF8B0
:1058F0002090B9F1000F0DD121464B4605222846D4
:1059000000F0D2F901460446584600F0E9FB0028B1
:105910003FF7B8AD239B039F6FEA030A4FF00008DF
:105920002146284600F09EF9002E3FF4A7AEB8F1BC
:10593000000F05D0B04503D04146284600F092F94B
:105940003146284600F08EF998E600242646E1E725
:10595000C246264696E50B9BDDF82090002B00F012
:10596000FD80002F05DD31463A46284600F048FB11
:105970000646B8F1000F5CD02846716800F032F995
:10598000074628B9024640F2EA217F4BFFF728BBC1
:10599000326906F10C01023292000C3000F014F969
:1059A00001223946284600F02BFBB0460646039BF1
:1059B00001330893039B4B440A93049B03F00103B8
:1059C0000993089B2146013B58460493FFF768FA68
:1059D000034641463033069058460B9300F080FB57
:1059E000324681462146284600F096FBC2680746AB
:1059F0000B9B02BB0146584600F072FB02460B9B14
:105A000039462846CDE90B3200F02CF9229B0C9A3E
:105A1000089F43EA0201099B0B430B9B0DD1392BD5
:105A200029D0B9F1000F01DD069B3133049A1370C0
:105A300076E73046B9E70122E2E7B9F1000F06DB6D
:105A4000229941EA0909099959EA010120D1002A5C
:105A5000ECDD594601222846089300F0D1FA214690
:105A6000834600F03DFB0028089B02DCDED1DA070C
:105A7000DCD5392BD8D13923049A13703B461F4605
:105A800017F8012C013B392A50D001321A7047E730
:105A9000002A03DD392BEED00133C7E7089A0A99B3
:105AA00002F8013C8A422AD0594600230A2228469D
:105AB00000F0FAF8B04583464FF000034FF00A02B9
:105AC0004146284607D100F0EFF880460646089B7D
:105AD0000133089375E700F0E7F83146804600236C
